:100000000C942A000C9447000C9447000C94470071
:100010000C9447000C9447000C9447000C94470044
:100020000C9447000C9447000C9447000C94470034
:100030000C9447000C9447000C9447000C94470024
:100040000C9447000C9447000C9447000C94470014
:100050000C94470011241FBECFE5D4E0DEBFCDBF16
:1000600010E0A0E6B0E0E2EBF1E002C005900D92F6
:10007000A637B107D9F720E0A6E7B0E001C01D928E
:10008000A837B207E1F70E9482000C94D7000C94C5
:10009000000082BB84E085BB8FEC97E00197F1F70D
:1000A00000C0000015BA9FE728E381E0915020408E
:1000B0008040E1F700C00000089588E30E944900F5
:1000C00086E00E94490081E00E94490080E80E9489
:1000D00049008EE00E944900089582BB85E085BBFF
:1000E0008FEC97E00197F1F700C0000081E085BB3D
:1000F0009FE728E381E0915020408040E1F700C075
:1001000000000895CF93DF93CDB7DEB765970FB6A4
:10011000F894DEBF0FBECDBF8DE0E0E6F0E0DE017B
:10012000119601900D928A95E1F788E0EDE6F0E0F6
:10013000DE011E9601900D928A95E1F78FEF81BB4B
:1001400084BB0E945D0007C00E946D008091770013
:100150008F5F8093770080917700E1E0F0E0EC0F13
:10016000FD1FE80FF11D80818111EECF80EC0E9410
:10017000490007C00E946D00809176008F5F8093D8
:10018000760080917600EEE0F0E0EC0FFD1FE80FC6
:10019000F11D80818111EECF80E090E065960FB671
:1001A000F894DEBF0FBECDBFDF91CF910895F894D4
:0201B000FFCF7F
:1001B20048656C6C6F204D6179616E6B0057656CA0
:0601C200636F6D65000093
:00000001FF
